S01600004652444D2D4B4C32355A2D554152542E6865785F
S113000000300020C10900006109000061090000FE
S113001000000000000000000000000000000000DC
S11300200000000000000000000000006109000062
S113003000000000000000006109000061090000E8
S11300406109000061090000610900006109000004
S113005061090000610900006109000061090000F4
S113006061090000610900006109000061090000E4
S113007061090000610900006109000061090000D4
S113008061090000610900006109000061090000C4
S113009061090000610900006109000061090000B4
S11300A061090000610900006109000061090000A4
S11300B06109000061090000610900006109000094
S1130800002934D00123002210B488422CD30124BF
S11308102407A14204D2814202D209011B01F8E754
S1130820E400A14204D2814202D249005B00F8E70D
S1130830884201D3401A1A434C08A04202D3001B39
S11308405C0822438C08A04202D3001B9C0822436C
S1130850CC08A04202D3001BDC082243002803D0AA
S11308601B0901D00909E3E7101C10BC70470028DC
S113087001D00020C04307B4024802A140180290EE
S113088003BDC046D90000000029F0D003B5FFF72E
S1130890B9FF0EBC4243891A1847C046002941D00B
S11308A010B4041C4C40A44601230022002900D5A6
S11308B04942002800D5404288422CD30124240711
S11308C0A14204D2814202D209011B01F8E7E400EB
S11308D0A14204D2814202D249005B00F8E7884277
S11308E001D3401A1A434C08A04202D3001B5C08EF
S11308F022438C08A04202D3001B9C082243CC084C
S1130900A04202D3001BDC082243002803D01B09A9
S113091001D00909E3E7101C6446002C00D54042CD
S113092010BC7047002806D003DB0020C0434008F9
S113093001E08020000607B4024802A1401802909A
S113094003BDC046190000000029EBD003B5FFF732
S1130950A7FF0EBC4243891A1847C0467047C046D9
S113096080B500AF00BEBD4680BDC04680B500AFB7
S1130970064A0749074BD150074A88235B010021E7
S1130980D15000F09DFCBD4680BDC04600E000E0B3
S113099000000000080D00000070044080B500AFA6
S11309A0054A064BD31A054A101C00211A1C00F0F4
S11309B0AFFFBD4680BDC04644F0FF1F00F0FF1FDF
S11309C001F076F8FFF7D2FFFFF7E8FF01F048F8EF
S11309D000F0E4FF01F07AF8044B0020191C00F049
S11309E007FD031C181C00F077FFC04600F0FF1F32
S11309F080B582B000AF7860FEE7C04680B582B0B3
S1130A0000AF786007E07B681B787A6801327A600F
S1130A10181C00F013F87B681B78002BF3D1BD463B
S1130A2002B080BD80B500AF034B181C00F01EFC63
S1130A30031C181CBD4680BD00A0064080B582B0D2
S1130A4000AF021CFB1D1A70044AFB1D1B78101C0E
S1130A50191C00F01FFCBD4602B080BD00A006407A
S1130A6080B500AF1D4A1D491D4BCB58A02149013B
S1130A7019431B4BD1501B4B802252009A641A4BD2
S1130A80194A52688021C9020A435A60164B164A11
S1130A9052698021C9020A435A61124B80225200D2
S1130AA0DA64114B104A5268802109030A435A60E0
S1130AB00D4B0D4A5269802109030A435A610B4BBD
S1130AC0802252005A600A4B02225A60084B084A9C
S1130AD0526902210A435A61BD4680BD0070044038
S1130AE03810000000A0044040F00F4000C0044053
S1130AF0C0F00F4080B586B000AF7860081C111CB0
S1130B001A1CFB1C1870BB1C19707B1C1A70C24B7E
S1130B109B79DBB21A1C0C2313409B080DD1BE4BEE
S1130B209B79DBB21A1C1023134006D0BA4B9B7975
S1130B30DBB21A1C2023134001D0012373E27A682C
S1130B40B64B9A4201DD21236DE2BB1C1B78002BBE
S1130B5009D07A68B24B9A4203DD7A68B14B9A4263
S1130B6001DD22235FE2FB1C1B78002B02D0FB1C5F
S1130B7001221A707B1C1B785BB2002B04DD7B1CEA
S1130B801B785BB2192B01DD41234CE23B1C203363
S1130B901B785BB2172B05DD3B1C20331B785BB243
S1130BA0322B01DD42233EE27B1C1B785BB278686A
S1130BB0191CFFF773FE031C3B613A699A4B9A4276
S1130BC003DD3A69994B9A4201DD43232BE27B1CF6
S1130BD01B785BB27868191CFFF760FE031C3A1C93
S1130BE02032127852B25343FB60FA68904B9A4217
S1130BF003DDFA688F4B9A4201DD452313E2864AEE
S1130C003B1C163352781A703B1C16333A1C1632AE
S1130C1012783C218A431A707A68874B9A4214DC12
S1130C20FB1C1B78DB00DAB2BB1C1B789B00DBB21D
S1130C301343DAB23B1C16331B781343DAB23B1C62
S1130C40163310210A431A7013E0FB1C1B78DB00D7
S1130C50DAB2BB1C1B789B00DBB21343DAB23B1C39
S1130C6016331B781343DAB23B1C163320210A4394
S1130C701A70694B3A1C163212785A707A686F4BA4
S1130C809A4204DC3B1C173300221A7027E07A686E
S1130C906B4B9A4204DC3B1C173301221A701EE092
S1130CA07A68684B9A4204DC3B1C173302221A70A0
S1130CB015E07A68644B9A4204DC3B1C1733032228
S1130CC01A700CE07A68614B9A4204DC3B1C1733BF
S1130CD004221A7003E03B1C173305221A704E4A93
S1130CE03B1C163312781A703B1C16333A1C16320E
S1130CF0117803220A401A703B1C17331B78DB005F
S1130D00DAB238231340DAB23B1C16331B78134390
S1130D10DAB23B1C1633802149420A431A703E4B17
S1130D203A1C163212781A70BB1C1B78002B24D084
S1130D303B1C143300221A800DE0374B9B79DBB245
S1130D401A1C022313400ED13B1C14333A1C1432D8
S1130D50128801321A803B1C143300215A5E3C4B2A
S1130D609A42EADD00E0C0462B4B9B79DBB21A1CA9
S1130D700223134001D1232355E13B1C14330022E9
S1130D801A800DE0244B9B79DBB21A1C102313400C
S1130D900ED03B1C14333A1C1432128801321A80D0
S1130DA03B1C143300215A5E2A4B9A42EADD00E0D0
S1130DB0C046194B9B79DBB21A1C1023134001D097
S1130DC0112330E13B1C143300221A800FE0124B34
S1130DD09B79DBB21A1C0C2313409B08022B0ED008
S1130DE03B1C14333A1C1432128801321A803B1C07
S1130DF0143300215A5E174B9A42E8DD00E0C046E6
S1130E00054B9B79DBB21A1C0C2313409B08022B65
S1130E1022D01A2307E1C0460040064080F0FA02BF
S1130E20BFC62D000048E8017F841E0000093D0074
S1130E30FF6BDC0200E1F50500127A00D01213000A
S1130E40A0252600404B4C0080969800002D3101CF
S1130E501F4E0000CF070000754B754A5279D2B27D
S1130E6020210A43D2B25A71714A3B1C16331279BB
S1130E701A703B1C16333A1C163212781F218A430F
S1130E801A707B1C1B78013BDAB21F231340D9B2C2
S1130E903B1C16333A1C163212780A431A70644B00
S1130EA03A1C163212781A71614A3B1C1633527975
S1130EB01A703B1C16333A1C163212781F218A43CF
S1130EC01A703B1C20331B78183BDAB21F231340E3
S1130ED0DAB23B1C16331B781343DAB23B1C1633CD
S1130EE040210A431A70524B3A1C163212785A7136
S1130EF03B1C143300221A800DE04D4B9B79DBB26E
S1130F001A1C202313400ED13B1C14333A1C1432F8
S1130F10128801321A803B1C143300215A5E454B5F
S1130F209A42EADD00E0C046414B9B79DBB21A1CD1
S1130F302023134001D1162375E03B1C14330022F7
S1130F401A800DE03A4B9B79DBB21A1C4023134004
S1130F500ED13B1C14333A1C1432128801321A800D
S1130F603B1C143300215A5E334B9A42EADD00E005
S1130F70C0462F4B9B79DBB21A1C4023134001D18E
S1130F80442350E02A4B1B79DAB21F231340DAB210
S1130F903B1C0B3301321A70254B5B79DAB21F23E9
S1130FA01340DAB23B1C0A3318321A70204B204A21
S1130FB01278D1B23F220A40D2B21A703B1C1433C9
S1130FC000221A800FE01A4B9B79DBB21A1C0C2307
S1130FD013409B08032B0ED03B1C14333A1C1432D1
S1130FE0128801321A803B1C143300215A5E114BC3
S1130FF09A42E8DD00E0C0460D4B9B79DBB21A1C37
S11310000C2313409B08032B01D01B230BE03B1C38
S11310100B331B787868191CFFF740FC031C3A1C3F
S11310200A3212785343181CBD4606B080BDC04630
S113103000400640CF0700009F0F000080B58EB02F
S113104000AFF860B9607A6000237B6200233B63E1
S11310500023FB6200233B620023BB627D4A7D497F
S11310607D4BCB588021C90019437B4BD1507B4B1E
S11310707A4AD278D2B20C218A43D2B2DA70BA68F0
S1131080774B9A4202DCBB681F2B0EDC0023BB604B
S1131090704A744BD3583B623A6A734B13403B62B9
S11310A06C4A704B396AD150FEE77B68FB61BB68C0
S11310B0FA2292005343BB613B1C373304221A705B
S11310C03B1C37331B78FA695343B869191CFFF783
S11310D097FB031C7B613B1C37331B787A695343B2
S11310E0B869191CFFF78CFB031C7B627A6AFB69E5
S11310F09A4204D97A6AFB69D31A3B6303E0FA691A
S11311007B6AD31A3B633B1C37331B78FB623B1C63
S1131110373305221A7033E03B1C37331B78FA69E6
S11311205343B869191CFFF76BFB031C7B613B1C21
S113113037331B787A695343B869191CFFF760FB8E
S1131140031C7B627A6AFB699A4204D97A6AFB6956
S1131150D31ABB6203E0FA697B6AD31ABB62BA6A28
S11311603B6B9A4205D8BB6A3B633B1C37331B7805
S1131170FB623B1C37333A1C3732127801321A7047
S11311803B1C37331B78202BC6D9FB69181C642100
S1131190FFF736FB031C1A1C131C5B009A183B6BED
S11311A09A4253D9FB6A032B0AD9FB6A082B07D846
S11311B02A4B2A4AD27AD2B202210A43D2B2DA7232
S11311C0264B9B7ADBB23B623B6A1F2293433B6212
S11311D0FB6ADBB2013BDBB21A1C1F2313403A6AE1
S11311E013433B621D4B3A6AD2B29A723A6A1F2386
S11311F0134001333B62FB693A6A5343B869191CD3
S1131200FFF7FEFA031C7B61144B1B78DBB21F2231
S113121093433B62114B7969F82252010A40120A46
S1131220D1B21F220A40D1B23A6AD2B20A43D2B230
S11312301A700A4B7A69D2B25A70084B074AD278AC
S1131240D2B20C210A43D2B2DA7000E0FEE7BD4606
S11312500EB080BD007004403410000000A00640B1
S113126050C3000004100000FFFFFFF380B582B0FC
S113127000AF7860C0467B681B79DBB21A1C202360
S11312801340F8D07B68DB79DBB2181CBD4602B092
S113129080BDC04680B582B000AF78600A1CFB1CDC
S11312A01A70C0467B681B79DBB2DBB25BB2002BE1
S11312B0F8DA7B68FA1C1278DA71BD4602B080BD98
S11312C080B582B002AF3E4A3D493E4BCB58F8212F
S11312D0890119433B4BD150394A3B4B8021490288
S11312E0D1503A4B1822009201220192181C00217D
S11312F001220423FFF7FEFB021C354B1A60344B1A
S11313001B68181CFA239900FFF7C8FA031C1A1C5F
S1131310304B1A602F4B1B681A1C29492A4BCB5897
S11313201B0F0133101C191CFFF76AFA031C1A1C4B
S1131330294B1A60284B1B681A1C2149224BC95897
S1131340E023DB020B401B0C0133101C191CFFF7BC
S113135057FA031C1A1C214B1A60194A1849204BCE
S1131360CB588021490219431D4BD1501D4B80227B
S113137092005A601B4B802292009A60104A1049D6
S1131380174BCB588021C9041943154BD150104B2E
S11313901B68181CFA23D900FFF780FA031C1A1CD7
S11313A0114B1A60104B1A681049E1235B02081CA8
S11313B0111C1A1CFFF742FEFFF752FBBD4680BD0D
S11313C000700440381000004410000000127A003D
S11313D020F0FF1F34F0FF1F24F0FF1F28F0FF1F31
S11313E004100000009004402CF0FF1F00A00640F1
S11313F080B500AF764B00221A70764B181CFFF7AD
S1131400FDFAFFF70FFB031C1A1C734B1A70724B87
S11314101B78181CFFF712FB6F4B1B78312B05D080
S11314201CDD322B0AD0332B10D018E0684B1B780C
S113143004221343DAB2664B1A7010E0644B1B7833
S113144008221343DAB2624B1A7008E0604B1B782F
S11314500C221343DAB25E4B1A7000E0C0465F4BB5
S1131460181CFFF7CBFAFFF7DDFA031C1A1C5A4BC2
S11314701A70594B1B78181CFFF7E0FA564B1B786F
S1131480312B05D01CDD322B0AD0332B10D018E0C1
S11314904F4B1B7810221343DAB24D4B1A7010E0F5
S11314A04B4B1B7820221343DAB2494B1A7008E0E5
S11314B0474B1B7830221343DAB2454B1A7000E0D5
S11314C0C046474B181CFFF799FAFFF7ABFA031C09
S11314D01A1C414B1A70404B1B78181CFFF7AEFACC
S11314E03D4B1B78312B08D002DC302B27D01EE07B
S11314F0322B0AD0332B11D019E0354B1B78402204
S11315001343DAB2324B1A701AE0314B1B78802243
S113151052421343DAB22E4B1A7011E02C4B1B7853
S1131520402252421343DAB2294B1A7008E0284B86
S11315301B7840221343DAB2254B1A7000E0C046F0
S1131540284B181CFFF75AFAFFF76CFA031C1A1CF5
S1131550214B1A70204B1B78181CFFF76FFA1E4B97
S11315601B78302B09D0312B08D1194B1B78022260
S11315701343DAB2164B1A7000E0C0461A4B181C1B
S1131580FFF73CFAFFF74EFA031C1A1C124B1A70B1
S1131590114B1B78181CFFF751FA0F4B1B78302B9B
S11315A002D0312B04D00EE0104B00221A700AE056
S11315B00E4B01221A70064B1B7801221343DAB238
S11315C0034B1A70C04600F0CBF800F011F811E795
S11315D004F0FF1FD01A000040F0FF1FE41A0000BF
S11315E0F41A0000081B0000181B00003DF0FF1F48
S11315F080B500AF394B181CFFF700FA00F07AF8F9
S1131600031C002B04D0364B181CFFF7F7F903E03A
S1131610344B181CFFF7F2F9334B1B781A1C302398
S11316201340102B0CD002DC002B05D014E0202B2F
S11316300AD0302B0CD00FE0294B181CFFF7DEF931
S1131640284B181CFFF7DAF9284B181CFFF7D6F9BA
S1131650274B181CFFF7D2F9234B1B781A1CC02305
S11316601340402B0CD002DC002B05D014E0802B5F
S11316700AD0C02B0CD00FE0194B181CFFF7BEF991
S1131680184B181CFFF7BAF9184B181CFFF7B6F9DA
S1131690174B181CFFF7B2F9134B1B781A1C0C23B9
S11316A01340042B0CD002DC002B05D014E0082BD3
S11316B00AD00C2B0CD00FE0094B181CFFF79EF935
S11316C0084B181CFFF79AF9084B181CFFF796F9FA
S11316D0074B181CFFF792F9BD4680BD281B00007C
S11316E02C1B0000301B000004F0FF1F341B000003
S11316F0381B000080B500AF154B00221A70154B43
S113170002221A8011E0144B1B78124A12881340EB
S113171005D00F4B1B780133DAB20D4B1A700D4B09
S11317201B885B009AB20B4B1A800A4B1B88FE2B5A
S1131730E9D9074B1A7801231340DAB2074B1B7817
S1131740D31A5A1E9341DBB2181CBD4680BDC04655
S11317503CF0FF1F3EF0FF1F04F0FF1F3DF0FF1F92
S113176080B500AFFFF7C6FF031C002B49D0264B02
S11317701B781A1C30231340102B0BD002DC002BD7
S113178005D03EE0202B36D0302B37D039E000F0A6
S11317903FF836E01C4B1B781A1C0C231340042B17
S11317A00BD002DC002B05D01CE0082B0CD00C2B3A
S11317B011D017E000F02CF81CE0144B1B78012B1F
S11317C013D100F055F810E0104B1B78022B0ED10A
S11317D000F036F80BE00D4B1B78012B09D100F01B
S11317E017F806E000F014F80BE0C04602E0C0462B
S11317F000E0C04605E000F023F802E000F038F80D
S1131800C046BD4680BDC04604F0FF1F05F0FF1F63
S113181080B500AF074B8022D2025A60054B80226C
S113182012035A60044B02225A60044B00221A70BD
S1131830BD4680BD40F00F40C0F00F4005F0FF1FD3
S113184080B500AF074B8022D2029A60054B8022FC
S113185012035A60044B02225A60044B01221A708C
S1131860BD4680BD40F00F40C0F00F4005F0FF1FA3
S113187080B500AF144B1B783F229343DBB2C02BDF
S113188006D0114B1B783F229343DBB2802B0BD144
S11318900E4B8022D2029A600C4B802212035A60B3
S11318A00B4B02229A600AE0084B8022D2029A6013
S11318B0064B802212035A60054B02225A60054BE4
S11318C002221A70BD4680BD04F0FF1F40F00F4095
S11318D0C0F00F4005F0FF1F38B5051C00F0DAF822
S11318E000F080F8084C2368002B02D098470020B1
S11318F02060064C2168002902D08847002222601B
S1131900281CFFF775F838BD08F0FF1F0CF0FF1F07
S113191010B5041C00F002F8201C10BD30B5C9B28B
S1131920031C1F2A31D944420323234005D0D21A71
S1131930C51801700130A842FBD1002905D00D065D
S11319400C042C430B02214319435409031C002C9F
S11319500ED0251C013D196059609960D960196148
S113196059619961D9612033002DF3D16301C31802
S1131970D006400F07D0041C1D1C013C02C5002CDE
S1131980FBD180001B18032422409D18002A03D099
S113199019700133AB42FBD130BD000010B50B4CC4
S11319A00B4B9C4202D001CC8047F9E7094C0A4812
S11319B0844202D008CC9847F9E7084C08498C4285
S11319C002D004CC9047F9E710BDC0463C1B000090
S11319D03C1B00003C1B00003C1B00003C1B0000A7
S11319E03C1B000010B5084C084B9C4202D004CCB0
S11319F09047F9E7064C0748844203D0043C216829
S1131A008847F8E710BDC0463C1B00003C1B0000A3
S1131A103C1B00003C1B000000B588421FD0002A7C
S1131A201DD00323194207D1184205D19A4203D984
S1131A3008C9043A08C0F2E70123194209D118423F
S1131A4007D19A4205D90B88023A03800231023049
S1131A50E5E70B78013A037001310130DFE700BD9F
S1131A6038B50B4D002D11D000242B19196800290D
S1131A7006D02B1958689A68FFF7CEFF0C34F4E7A8
S1131A805A68002AF5D198680028F2D138BDC046BA
S1131A903C1B0000054B10B51C68002C04D0A0684A
S1131AA0616888472468F8E710BDC0461CF0FF1F32
S1131AB0054B181C002805D0854681B00020C04382
S1131AC0009001B0F746704700300020F746704799
S1131AD00D0A4C696768742053656E736F720D0A42
S1131AE0000000000D0A53656C6563746F720D0A83
S1131AF0000000000D0A49676E6974696F6E205317
S1131B0074617475730D0A000D0A53746F7020426A
S1131B1069740D0A000000000D0A436865636B7365
S1131B20756D0D0A000000000A000000303000004E
S10F1B3030310000313000003131000081
S1131B3C3C1B000000F0FF1F000000000000000030
S10B1B4C00000000000000008D
S90309C132
